{
  "contractName": "CreditScore",
  "abi": [
    {
      "constant": true,
      "inputs": [],
      "name": "creditScoreValue",
      "outputs": [
        {
          "name": "",
          "type": "string"
        }
      ],
      "payable": false,
      "stateMutability": "view",
      "type": "function"
    },
    {
      "inputs": [],
      "payable": false,
      "stateMutability": "nonpayable",
      "type": "constructor"
    },
    {
      "anonymous": false,
      "inputs": [
        {
          "indexed": false,
          "name": "description",
          "type": "string"
        }
      ],
      "name": "LogInfo",
      "type": "event"
    },
    {
      "anonymous": false,
      "inputs": [
        {
          "indexed": false,
          "name": "price",
          "type": "string"
        }
      ],
      "name": "LogNewEthPrice",
      "type": "event"
    },
    {
      "anonymous": false,
      "inputs": [
        {
          "indexed": false,
          "name": "description",
          "type": "string"
        }
      ],
      "name": "LogNewOraclizeQuery",
      "type": "event"
    },
    {
      "constant": false,
      "inputs": [
        {
          "name": "myid",
          "type": "bytes32"
        },
        {
          "name": "result",
          "type": "string"
        }
      ],
      "name": "__callback",
      "outputs": [],
      "payable": false,
      "stateMutability": "nonpayable",
      "type": "function"
    },
    {
      "constant": false,
      "inputs": [
        {
          "name": "myid",
          "type": "bytes32"
        },
        {
          "name": "result",
          "type": "string"
        },
        {
          "name": "proof",
          "type": "bytes"
        }
      ],
      "name": "__callback",
      "outputs": [],
      "payable": false,
      "stateMutability": "nonpayable",
      "type": "function"
    },
    {
      "constant": false,
      "inputs": [],
      "name": "update",
      "outputs": [],
      "payable": true,
      "stateMutability": "payable",
      "type": "function"
    }
  ],
  "bytecode": "0x60806040523480156200001157600080fd5b506200002b62000031640100000000026401000000009004565b62000af9565b3073ffffffffffffffffffffffffffffffffffffffff1631620000986040805190810160405280600381526020017f55524c0000000000000000000000000000000000000000000000000000000000815250620000a8640100000000026401000000009004565b1115620000a557620000a6565b5b565b6000806000809054906101000a900473ffffffffffffffffffffffffffffffffffffffff1673ffffffffffffffffffffffffffffffffffffffff1614806200012a57506000620001286000809054906101000a900473ffffffffffffffffffffffffffffffffffffffff16620004a9640100000000026401000000009004565b145b156200014d576200014b6000620004b4640100000000026401000000009004565b505b6000809054906101000a900473ffffffffffffffffffffffffffffffffffffffff1673ffffffffffffffffffffffffffffffffffffffff166338cc48316040518163ffffffff167c0100000000000000000000000000000000000000000000000000000000028152600401602060405180830381600087803b158015620001d357600080fd5b505af1158015620001e8573d6000803e3d6000fd5b505050506040513d6020811015620001ff57600080fd5b810190808051906020019092919050505073ffffffffffffffffffffffffffffffffffffffff16600160009054906101000a900473ffffffffffffffffffffffffffffffffffffffff1673ffffffffffffffffffffffffffffffffffffffff161415156200036b576000809054906101000a900473ffffffffffffffffffffffffffffffffffffffff1673ffffffffffffffffffffffffffffffffffffffff166338cc48316040518163ffffffff167c0100000000000000000000000000000000000000000000000000000000028152600401602060405180830381600087803b158015620002ed57600080fd5b505af115801562000302573d6000803e3d6000fd5b505050506040513d60208110156200031957600080fd5b8101908080519060200190929190505050600160006101000a81548173ffffffffffffffffffffffffffffffffffffffff021916908373ffffffffffffffffffffffffffffffffffffffff1602179055505b600160009054906101000a900473ffffffffffffffffffffffffffffffffffffffff1673ffffffffffffffffffffffffffffffffffffffff1663524f3889836040518263ffffffff167c01000000000000000000000000000000000000000000000000000000000281526004018080602001828103825283818151815260200191508051906020019080838360005b8381101562000417578082015181840152602081019050620003fa565b50505050905090810190601f168015620004455780820380516001836020036101000a031916815260200191505b5092505050602060405180830381600087803b1580156200046557600080fd5b505af11580156200047a573d6000803e3d6000fd5b505050506040513d60208110156200049157600080fd5b81019080805190602001909291905050509050919050565b6000813b9050919050565b6000620004cf620004d6640100000000026401000000009004565b9050919050565b60008062000507731d3b2638a7cc9f2cb3d298a3da7a90b67e5506ed620004a9640100000000026401000000009004565b1115620005bb57731d3b2638a7cc9f2cb3d298a3da7a90b67e5506ed6000806101000a81548173ffffffffffffffffffffffffffffffffffffffff021916908373ffffffffffffffffffffffffffffffffffffffff160217905550620005b16040805190810160405280600b81526020017f6574685f6d61696e6e657400000000000000000000000000000000000000000081525062000a2e640100000000026401000000009004565b6001905062000a2b565b6000620005eb73c03a2615d5efaf5f49f60b7bb6583eaec212fdf1620004a9640100000000026401000000009004565b11156200069f5773c03a2615d5efaf5f49f60b7bb6583eaec212fdf16000806101000a81548173ffffffffffffffffffffffffffffffffffffffff021916908373ffffffffffffffffffffffffffffffffffffffff160217905550620006956040805190810160405280600c81526020017f6574685f726f707374656e33000000000000000000000000000000000000000081525062000a2e640100000000026401000000009004565b6001905062000a2b565b6000620006cf73b7a07bcf2ba2f2703b24c0691b5278999c59ac7e620004a9640100000000026401000000009004565b1115620007835773b7a07bcf2ba2f2703b24c0691b5278999c59ac7e6000806101000a81548173ffffffffffffffffffffffffffffffffffffffff021916908373ffffffffffffffffffffffffffffffffffffffff160217905550620007796040805190810160405280600981526020017f6574685f6b6f76616e000000000000000000000000000000000000000000000081525062000a2e640100000000026401000000009004565b6001905062000a2b565b6000620007b373146500cfd35b22e4a392fe0adc06de1a1368ed48620004a9640100000000026401000000009004565b1115620008675773146500cfd35b22e4a392fe0adc06de1a1368ed486000806101000a81548173ffffffffffffffffffffffffffffffffffffffff021916908373ffffffffffffffffffffffffffffffffffffffff1602179055506200085d6040805190810160405280600b81526020017f6574685f72696e6b65627900000000000000000000000000000000000000000081525062000a2e640100000000026401000000009004565b6001905062000a2b565b600062000897736f485c8bf6fc43ea212e93bbf8ce046c7f1cb475620004a9640100000000026401000000009004565b1115620008fc57736f485c8bf6fc43ea212e93bbf8ce046c7f1cb4756000806101000a81548173ffffffffffffffffffffffffffffffffffffffff021916908373ffffffffffffffffffffffffffffffffffffffff1602179055506001905062000a2b565b60006200092c7320e12a1f859b3feae5fb2a0a32c18f5a65555bbf620004a9640100000000026401000000009004565b111562000991577320e12a1f859b3feae5fb2a0a32c18f5a65555bbf6000806101000a81548173ffffffffffffffffffffffffffffffffffffffff021916908373ffffffffffffffffffffffffffffffffffffffff1602179055506001905062000a2b565b6000620009c17351efaf4c8b3c9afbd5ab9f4bbc82784ab6ef8faa620004a9640100000000026401000000009004565b111562000a26577351efaf4c8b3c9afbd5ab9f4bbc82784ab6ef8faa6000806101000a81548173ffffffffffffffffffffffffffffffffffffffff021916908373ffffffffffffffffffffffffffffffffffffffff1602179055506001905062000a2b565b600090505b90565b806002908051906020019062000a4692919062000a4a565b5050565b828054600181600116156101000203166002900490600052602060002090601f016020900481019282601f1062000a8d57805160ff191683800117855562000abe565b8280016001018555821562000abe579182015b8281111562000abd57825182559160200191906001019062000aa0565b5b50905062000acd919062000ad1565b5090565b62000af691905b8082111562000af257600081600090555060010162000ad8565b5090565b90565b6111618062000b096000396000f300608060405260043610610062576000357c0100000000000000000000000000000000000000000000000000000000900463ffffffff16806327dc297e1461006757806338bbfa50146100de578063439f01441461019b578063a2e620451461022b575b600080fd5b34801561007357600080fd5b506100dc6004803603810190808035600019169060200190929190803590602001908201803590602001908080601f0160208091040260200160405190810160405280939291908181526020018383808284378201915050505050509192919290505050610235565b005b3480156100ea57600080fd5b506101996004803603810190808035600019169060200190929190803590602001908201803590602001908080601f0160208091040260200160405190810160405280939291908181526020018383808284378201915050505050509192919290803590602001908201803590602001908080601f0160208091040260200160405190810160405280939291908181526020018383808284378201915050505050509192919290505050610396565b005b3480156101a757600080fd5b506101b061039b565b6040518080602001828103825283818151815260200191508051906020019080838360005b838110156101f05780820151818401526020810190506101d5565b50505050905090810190601f16801561021d5780820380516001836020036101000a031916815260200191505b509250505060405180910390f35b610233610439565b005b61023d61049d565b73ffffffffffffffffffffffffffffffffffffffff163373ffffffffffffffffffffffffffffffffffffffff161415156102df576040517f08c379a00000000000000000000000000000000000000000000000000000000081526004018080602001828103825260178152602001807f43616c6c6572206973206e6f74204f7261636c697a652100000000000000000081525060200191505060405180910390fd5b7f13f6c146341f01b18567c39d285d72a1fed28b0731c5dfa67c925b22abfa858b816040518080602001828103825283818151815260200191508051906020019080838360005b83811015610341578082015181840152602081019050610326565b50505050905090810190601f16801561036e5780820380516001836020036101000a031916815260200191505b509250505060405180910390a18060059080519060200190610391929190611090565b505050565b505050565b60058054600181600116156101000203166002900480601f0160208091040260200160405190810160405280929190818152602001828054600181600116156101000203166002900480156104315780601f1061040657610100808354040283529160200191610431565b820191906000526020600020905b81548152906001019060200180831161041457829003601f168201915b505050505081565b3073ffffffffffffffffffffffffffffffffffffffff163161048f6040805190810160405280600381526020017f55524c00000000000000000000000000000000000000000000000000000000008152506107fb565b111561049a5761049b565b5b565b6000806000809054906101000a900473ffffffffffffffffffffffffffffffffffffffff1673ffffffffffffffffffffffffffffffffffffffff16148061050d5750600061050b6000809054906101000a900473ffffffffffffffffffffffffffffffffffffffff16610bcb565b145b1561051e5761051c6000610bd6565b505b6000809054906101000a900473ffffffffffffffffffffffffffffffffffffffff1673ffffffffffffffffffffffffffffffffffffffff166338cc48316040518163ffffffff167c0100000000000000000000000000000000000000000000000000000000028152600401602060405180830381600087803b1580156105a357600080fd5b505af11580156105b7573d6000803e3d6000fd5b505050506040513d60208110156105cd57600080fd5b810190808051906020019092919050505073ffffffffffffffffffffffffffffffffffffffff16600160009054906101000a900473ffffffffffffffffffffffffffffffffffffffff1673ffffffffffffffffffffffffffffffffffffffff16141515610735576000809054906101000a900473ffffffffffffffffffffffffffffffffffffffff1673ffffffffffffffffffffffffffffffffffffffff166338cc48316040518163ffffffff167c0100000000000000000000000000000000000000000000000000000000028152600401602060405180830381600087803b1580156106b957600080fd5b505af11580156106cd573d6000803e3d6000fd5b505050506040513d60208110156106e357600080fd5b8101908080519060200190929190505050600160006101000a81548173ffffffffffffffffffffffffffffffffffffffff021916908373ffffffffffffffffffffffffffffffffffffffff1602179055505b600160009054906101000a900473ffffffffffffffffffffffffffffffffffffffff1673ffffffffffffffffffffffffffffffffffffffff1663c281d19e6040518163ffffffff167c0100000000000000000000000000000000000000000000000000000000028152600401602060405180830381600087803b1580156107bb57600080fd5b505af11580156107cf573d6000803e3d6000fd5b505050506040513d60208110156107e557600080fd5b8101908080519060200190929190505050905090565b6000806000809054906101000a900473ffffffffffffffffffffffffffffffffffffffff1673ffffffffffffffffffffffffffffffffffffffff16148061086b575060006108696000809054906101000a900473ffffffffffffffffffffffffffffffffffffffff16610bcb565b145b1561087c5761087a6000610bd6565b505b6000809054906101000a900473ffffffffffffffffffffffffffffffffffffffff1673ffffffffffffffffffffffffffffffffffffffff166338cc48316040518163ffffffff167c0100000000000000000000000000000000000000000000000000000000028152600401602060405180830381600087803b15801561090157600080fd5b505af1158015610915573d6000803e3d6000fd5b505050506040513d602081101561092b57600080fd5b810190808051906020019092919050505073ffffffffffffffffffffffffffffffffffffffff16600160009054906101000a900473ffffffffffffffffffffffffffffffffffffffff1673ffffffffffffffffffffffffffffffffffffffff16141515610a93576000809054906101000a900473ffffffffffffffffffffffffffffffffffffffff1673ffffffffffffffffffffffffffffffffffffffff166338cc48316040518163ffffffff167c0100000000000000000000000000000000000000000000000000000000028152600401602060405180830381600087803b158015610a1757600080fd5b505af1158015610a2b573d6000803e3d6000fd5b505050506040513d6020811015610a4157600080fd5b8101908080519060200190929190505050600160006101000a81548173ffffffffffffffffffffffffffffffffffffffff021916908373ffffffffffffffffffffffffffffffffffffffff1602179055505b600160009054906101000a900473ffffffffffffffffffffffffffffffffffffffff1673ffffffffffffffffffffffffffffffffffffffff1663524f3889836040518263ffffffff167c01000000000000000000000000000000000000000000000000000000000281526004018080602001828103825283818151815260200191508051906020019080838360005b83811015610b3d578082015181840152602081019050610b22565b50505050905090810190601f168015610b6a5780820380516001836020036101000a031916815260200191505b5092505050602060405180830381600087803b158015610b8957600080fd5b505af1158015610b9d573d6000803e3d6000fd5b505050506040513d6020811015610bb357600080fd5b81019080805190602001909291905050509050919050565b6000813b9050919050565b6000610be0610be7565b9050919050565b600080610c07731d3b2638a7cc9f2cb3d298a3da7a90b67e5506ed610bcb565b1115610ca857731d3b2638a7cc9f2cb3d298a3da7a90b67e5506ed6000806101000a81548173ffffffffffffffffffffffffffffffffffffffff021916908373ffffffffffffffffffffffffffffffffffffffff160217905550610c9f6040805190810160405280600b81526020017f6574685f6d61696e6e6574000000000000000000000000000000000000000000815250611076565b60019050611073565b6000610cc773c03a2615d5efaf5f49f60b7bb6583eaec212fdf1610bcb565b1115610d685773c03a2615d5efaf5f49f60b7bb6583eaec212fdf16000806101000a81548173ffffffffffffffffffffffffffffffffffffffff021916908373ffffffffffffffffffffffffffffffffffffffff160217905550610d5f6040805190810160405280600c81526020017f6574685f726f707374656e330000000000000000000000000000000000000000815250611076565b60019050611073565b6000610d8773b7a07bcf2ba2f2703b24c0691b5278999c59ac7e610bcb565b1115610e285773b7a07bcf2ba2f2703b24c0691b5278999c59ac7e6000806101000a81548173ffffffffffffffffffffffffffffffffffffffff021916908373ffffffffffffffffffffffffffffffffffffffff160217905550610e1f6040805190810160405280600981526020017f6574685f6b6f76616e0000000000000000000000000000000000000000000000815250611076565b60019050611073565b6000610e4773146500cfd35b22e4a392fe0adc06de1a1368ed48610bcb565b1115610ee85773146500cfd35b22e4a392fe0adc06de1a1368ed486000806101000a81548173ffffffffffffffffffffffffffffffffffffffff021916908373ffffffffffffffffffffffffffffffffffffffff160217905550610edf6040805190810160405280600b81526020017f6574685f72696e6b656279000000000000000000000000000000000000000000815250611076565b60019050611073565b6000610f07736f485c8bf6fc43ea212e93bbf8ce046c7f1cb475610bcb565b1115610f6a57736f485c8bf6fc43ea212e93bbf8ce046c7f1cb4756000806101000a81548173ffffffffffffffffffffffffffffffffffffffff021916908373ffffffffffffffffffffffffffffffffffffffff16021790555060019050611073565b6000610f897320e12a1f859b3feae5fb2a0a32c18f5a65555bbf610bcb565b1115610fec577320e12a1f859b3feae5fb2a0a32c18f5a65555bbf6000806101000a81548173ffffffffffffffffffffffffffffffffffffffff021916908373ffffffffffffffffffffffffffffffffffffffff16021790555060019050611073565b600061100b7351efaf4c8b3c9afbd5ab9f4bbc82784ab6ef8faa610bcb565b111561106e577351efaf4c8b3c9afbd5ab9f4bbc82784ab6ef8faa6000806101000a81548173ffffffffffffffffffffffffffffffffffffffff021916908373ffffffffffffffffffffffffffffffffffffffff16021790555060019050611073565b600090505b90565b806002908051906020019061108c929190611090565b5050565b828054600181600116156101000203166002900490600052602060002090601f016020900481019282601f106110d157805160ff19168380011785556110ff565b828001600101855582156110ff579182015b828111156110fe5782518255916020019190600101906110e3565b5b50905061110c9190611110565b5090565b61113291905b8082111561112e576000816000905550600101611116565b5090565b905600a165627a7a723058208f26b428dea530da2a423b17068a1cab49eab108a01278bd55e200529ea1a80a0029",
  "source": "pragma solidity ^0.4.24;\n\nimport \"./oraclize/usingOraclize.sol\";\n\ncontract CreditScore is usingOraclize {\n\n    string public creditScoreValue;\n\n    event LogInfo(string description);\n    event LogNewEthPrice(string price);\n    event LogNewOraclizeQuery(string description);\n\n    function CreditScore() {\n        update(); \n    }\n\n    function __callback(bytes32 myid, string result) {\n        require(msg.sender == oraclize_cbAddress(), 'Caller is not Oraclize!');\n        emit LogNewEthPrice(result);\n        creditScoreValue = result;\n    }\n\n    function update() payable public {\n        if(oraclize_getPrice(\"URL\") > address(this).balance){\n            // emit LogInfo(\"Oraclize query was NOT sent, please add some ETH to cover for the query fee\");\n        } else {\n        //    emit LogInfo(\"Oraclize query was sent, standing by for the answer..\"); \n        //    emit LogNewOraclizeQuery(\"Oraclize query was sent, standing by for the answer..\");\n        //    oraclize_query(\"URL\", \"json(http://localhost:9000/api/datas/0x003e64f4ab80549fec7f3d4649739d531171fcdc).utility_score\");\n        }\n\n    }\n\n}",
  "sourcePath": "/Users/kylehz/Documents/workspace/eth/smcdemo/smc/contracts/CreditScore.sol",
  "compiler": {
    "name": "solc",
    "version": "0.4.25+commit.59dbf8f1.Emscripten.clang"
  },
  "schemaVersion": "3.0.0-beta.2",
  "updatedAt": "2019-10-16T09:30:07.195Z",
  "devdoc": {
    "methods": {}
  },
  "userdoc": {
    "methods": {}
  }
}